:0400000007EF00F016
:0A0008007982C9ED09F051EF09F00B
:10100000003738392F3435362A3132332D23303DED
:101010002B006F6E33EF08F0928074EF08F092822D
:1010200074EF08F0928474EF08F0928674EF08F081
:10103000928874EF08F0928A74EF08F0968074EF4B
:1010400008F0968274EF08F0968474EF08F09386A7
:1010500074EF08F0938274EF08F0938874EF08F04F
:10106000938074EF08F06F506D6E6E6A6E50000AD8
:10107000D8B43DEF08F074EF08F06D50000AD8B412
:101080000CEF08F0010AD8B40FEF08F0030AD8B447
:1010900012EF08F0010AD8B415EF08F0070AD8B427
:1010A00018EF08F0010AD8B41BEF08F0030AD8B40F
:1010B0001EEF08F0010AD8B421EF08F00F0AD8B4E7
:1010C00024EF08F0010AD8B427EF08F0030AD8B4D7
:1010D0002AEF08F0010AD8B42DEF08F0070AD8B4B7
:1010E00030EF08F074EF08F012006D50D8B47BEFC9
:1010F00008F07DEF08F085EF08F06E50D8A483EF7C
:1011000008F085EF08F087EF08F0CBEF08F06D509E
:10111000D96EDA6A060ED926DFA291EF08F093EFB6
:1011200008F0A6EF08F0C350C4CF6FF0706A6FC02C
:1011300070F06F6A6F26000E70226E50D96EDA6AF8
:101140006FC0DEFF70C0DDFFCBEF08F06D50D96ED1
:10115000DA6A060ED926DFB2B0EF08F0B2EF08F077
:1011600093EF08F0C350C4CF6FF0706A6FC070F097
:101170006F6A6F26000E7022060E716E7034703228
:101180006F32712EBEEF08F06E50D96EDA6A6FC002
:10119000DEFF70C0DDFF1200000E726E7050D8A42A
:1011A000D4EF08F0D6EF08F0D8EF08F020EF09F000
:1011B000C2907050D96EDA6A030ED926DF50716E74
:1011C000714671467146C0507118C70B7118C06ED8
:1011D0007050D96EDA6A040ED926DF50716EC05095
:1011E0007118F80B7118C06E7050D96EDA6A050E5E
:1011F000D926DF50716E71467146C2507118C30B0B
:101200007118C26E7050D96EDA6A050ED926DF5099
:1012100009EC08F09D8C9E9CF28EF28C7050D96E79
:10122000DA6ADECF54F0DDCF55F070C06DF0ECEC33
:1012300009F070C06DF0A6EC09F0C280010E726E6C
:1012400072501200000E776E7450D8B42AEF09F075
:101250002CEF09F04FEF09F07650D8A432EF09F0E7
:1012600034EF09F036EF09F04FEF09F074C070F079
:1012700075C071F02AEC0AF0776E74C06DF056EC10
:101280000AF0776EC2B247EF09F049EF09F042EF7A
:1012900009F074C06DF076C06EF075EC08F0775010
:1012A00012008C0EF66E140EF76E000EF86E00EE45
:1012B00080F010EE13F00900F5CFEEFFE550E1509D
:1012C000FAE1180EF66E140EF76E000EF86E00EED0
:1012D00001F010EE3BF00900F5CFEEFFE550E150D4
:1012E000FAE100EE3CF0310EEE6AE806FDE179909D
:1012F000799200017CEF09F050EC0AF0330E746E25
:10130000000E756E6B0E766E22EC09F0786E330E61
:10131000746E010E756E3A0E766E22EC09F0786EE0
:10132000330E746E020E756E690E766E22EC09F045
:10133000786E330E746E030E756E670E766E22EC49
:1013400009F0786E7EEF09F007EF00F06D50D96E6E
:10135000DA6A060ED926DFA0B0EF09F0B2EF09F085
:10136000B6EF09F0C18AC188C8EF09F06D50D96E97
:10137000DA6A060ED926DFB0C0EF09F0C2EF09F035
:10138000C6EF09F0C19AC198C8EF09F0C19AC19897
:1013900012000600F2A8CFEF09F0D1EF09F0D2EF6A
:1013A00009F0F250F0A6D7EF09F0D9EF09F0DAEF23
:1013B00009F0F050F0A8DFEF09F0E1EF09F0E2EFFB
:1013C00009F0F0509DACE7EF09F0E9EF09F0EAEF22
:1013D00009F09E50799211006D50D96EDA6A060EAE
:1013E000D926DFA2F6EF09F0F8EF09F0FBEF09F0DC
:1013F000C08E0BEF0AF06D50D96EDA6A060ED92650
:10140000DFB205EF0AF007EF0AF00AEF0AF0C09E1C
:101410000BEF0AF0C08E1200890F8A0F8B0F8C0F12
:101420008D0F920F930F940F950F960F020A121AB9
:1014300000C101016001006E0101621150C1302044
:101440001002020A121A626A727A00000005050090
:0314500000F401A4
:10145400000E736E7050D8A432EF0AF034EF0AF025
:1014640036EF0AF044EF0AF071C072F07246724629
:10147400C2507218C30B7218C26E715009EC08F096
:10148400010E736E73501200800F810F820F830F51
:0B149400840FC0F9A4B0990000000014
:1014A000330E706ECCEC08F0786E1200C282010E22
:0214B000120028
:020000040030CA
:0E000000FF02091EFF8181FF0FC00FE00F40BD
:00000001FF
